{
  "_format": "hh-sol-artifact-1",
  "contractName": "Match",
  "sourceName": "contracts/Match.sol",
  "abi": [
    {
      "anonymous": false,
      "inputs": [
        {
          "indexed": false,
          "internalType": "uint64",
          "name": "",
          "type": "uint64"
        },
        {
          "components": [
            {
              "internalType": "address",
              "name": "owner",
              "type": "address"
            },
            {
              "internalType": "string",
              "name": "slug",
              "type": "string"
            },
            {
              "internalType": "uint256",
              "name": "amount",
              "type": "uint256"
            }
          ],
          "indexed": false,
          "internalType": "struct Match.Bet",
          "name": "",
          "type": "tuple"
        }
      ],
      "name": "NewBet",
      "type": "event"
    },
    {
      "anonymous": false,
      "inputs": [
        {
          "components": [
            {
              "internalType": "uint64",
              "name": "id",
              "type": "uint64"
            },
            {
              "internalType": "enum Match.Status",
              "name": "status",
              "type": "uint8"
            },
            {
              "internalType": "uint256",
              "name": "totalAmount",
              "type": "uint256"
            },
            {
              "internalType": "string[]",
              "name": "availableBetSlugs",
              "type": "string[]"
            },
            {
              "internalType": "string[]",
              "name": "winningBetSlugs",
              "type": "string[]"
            },
            {
              "internalType": "bool",
              "name": "isExist",
              "type": "bool"
            }
          ],
          "indexed": false,
          "internalType": "struct Match.MatchStruct",
          "name": "",
          "type": "tuple"
        }
      ],
      "name": "NewMatch",
      "type": "event"
    },
    {
      "anonymous": false,
      "inputs": [
        {
          "indexed": true,
          "internalType": "address",
          "name": "previousOwner",
          "type": "address"
        },
        {
          "indexed": true,
          "internalType": "address",
          "name": "newOwner",
          "type": "address"
        }
      ],
      "name": "OwnershipTransferred",
      "type": "event"
    },
    {
      "anonymous": false,
      "inputs": [
        {
          "indexed": false,
          "internalType": "address",
          "name": "",
          "type": "address"
        },
        {
          "indexed": false,
          "internalType": "uint256",
          "name": "",
          "type": "uint256"
        }
      ],
      "name": "Received",
      "type": "event"
    },
    {
      "inputs": [
        {
          "internalType": "uint64",
          "name": "",
          "type": "uint64"
        },
        {
          "internalType": "string",
          "name": "",
          "type": "string"
        }
      ],
      "name": "availableBetSlugsExist",
      "outputs": [
        {
          "internalType": "bool",
          "name": "",
          "type": "bool"
        }
      ],
      "stateMutability": "view",
      "type": "function"
    },
    {
      "inputs": [
        {
          "internalType": "uint64",
          "name": "",
          "type": "uint64"
        },
        {
          "internalType": "uint256",
          "name": "",
          "type": "uint256"
        }
      ],
      "name": "bets",
      "outputs": [
        {
          "internalType": "address",
          "name": "owner",
          "type": "address"
        },
        {
          "internalType": "string",
          "name": "slug",
          "type": "string"
        },
        {
          "internalType": "uint256",
          "name": "amount",
          "type": "uint256"
        }
      ],
      "stateMutability": "view",
      "type": "function"
    },
    {
      "inputs": [
        {
          "internalType": "uint64",
          "name": "",
          "type": "uint64"
        },
        {
          "internalType": "string",
          "name": "",
          "type": "string"
        },
        {
          "internalType": "uint256",
          "name": "",
          "type": "uint256"
        }
      ],
      "name": "betsBySlug",
      "outputs": [
        {
          "internalType": "address",
          "name": "owner",
          "type": "address"
        },
        {
          "internalType": "string",
          "name": "slug",
          "type": "string"
        },
        {
          "internalType": "uint256",
          "name": "amount",
          "type": "uint256"
        }
      ],
      "stateMutability": "view",
      "type": "function"
    },
    {
      "inputs": [
        {
          "internalType": "uint64",
          "name": "",
          "type": "uint64"
        },
        {
          "internalType": "address",
          "name": "",
          "type": "address"
        },
        {
          "internalType": "uint256",
          "name": "",
          "type": "uint256"
        }
      ],
      "name": "betsByUsers",
      "outputs": [
        {
          "internalType": "address",
          "name": "owner",
          "type": "address"
        },
        {
          "internalType": "string",
          "name": "slug",
          "type": "string"
        },
        {
          "internalType": "uint256",
          "name": "amount",
          "type": "uint256"
        }
      ],
      "stateMutability": "view",
      "type": "function"
    },
    {
      "inputs": [
        {
          "components": [
            {
              "internalType": "uint64",
              "name": "id",
              "type": "uint64"
            },
            {
              "internalType": "enum Match.Status",
              "name": "status",
              "type": "uint8"
            },
            {
              "internalType": "uint256",
              "name": "totalAmount",
              "type": "uint256"
            },
            {
              "internalType": "string[]",
              "name": "availableBetSlugs",
              "type": "string[]"
            },
            {
              "internalType": "string[]",
              "name": "winningBetSlugs",
              "type": "string[]"
            },
            {
              "internalType": "bool",
              "name": "isExist",
              "type": "bool"
            }
          ],
          "internalType": "struct Match.MatchStruct",
          "name": "_match",
          "type": "tuple"
        }
      ],
      "name": "createMatch",
      "outputs": [],
      "stateMutability": "nonpayable",
      "type": "function"
    },
    {
      "inputs": [],
      "name": "feeAddress",
      "outputs": [
        {
          "internalType": "address",
          "name": "",
          "type": "address"
        }
      ],
      "stateMutability": "view",
      "type": "function"
    },
    {
      "inputs": [],
      "name": "feePercent",
      "outputs": [
        {
          "internalType": "uint8",
          "name": "",
          "type": "uint8"
        }
      ],
      "stateMutability": "view",
      "type": "function"
    },
    {
      "inputs": [
        {
          "internalType": "uint64",
          "name": "_matchId",
          "type": "uint64"
        }
      ],
      "name": "getBetsByMatch",
      "outputs": [
        {
          "components": [
            {
              "internalType": "address",
              "name": "owner",
              "type": "address"
            },
            {
              "internalType": "string",
              "name": "slug",
              "type": "string"
            },
            {
              "internalType": "uint256",
              "name": "amount",
              "type": "uint256"
            }
          ],
          "internalType": "struct Match.Bet[]",
          "name": "",
          "type": "tuple[]"
        }
      ],
      "stateMutability": "view",
      "type": "function"
    },
    {
      "inputs": [
        {
          "internalType": "uint64",
          "name": "_matchId",
          "type": "uint64"
        }
      ],
      "name": "getBetsByUser",
      "outputs": [
        {
          "components": [
            {
              "internalType": "address",
              "name": "owner",
              "type": "address"
            },
            {
              "internalType": "string",
              "name": "slug",
              "type": "string"
            },
            {
              "internalType": "uint256",
              "name": "amount",
              "type": "uint256"
            }
          ],
          "internalType": "struct Match.Bet[]",
          "name": "",
          "type": "tuple[]"
        }
      ],
      "stateMutability": "view",
      "type": "function"
    },
    {
      "inputs": [
        {
          "internalType": "uint64",
          "name": "_matchId",
          "type": "uint64"
        }
      ],
      "name": "getMatch",
      "outputs": [
        {
          "components": [
            {
              "internalType": "uint64",
              "name": "id",
              "type": "uint64"
            },
            {
              "internalType": "enum Match.Status",
              "name": "status",
              "type": "uint8"
            },
            {
              "internalType": "uint256",
              "name": "totalAmount",
              "type": "uint256"
            },
            {
              "internalType": "string[]",
              "name": "availableBetSlugs",
              "type": "string[]"
            },
            {
              "internalType": "string[]",
              "name": "winningBetSlugs",
              "type": "string[]"
            },
            {
              "internalType": "bool",
              "name": "isExist",
              "type": "bool"
            }
          ],
          "internalType": "struct Match.MatchStruct",
          "name": "",
          "type": "tuple"
        }
      ],
      "stateMutability": "view",
      "type": "function"
    },
    {
      "inputs": [
        {
          "internalType": "uint64",
          "name": "_matchId",
          "type": "uint64"
        },
        {
          "internalType": "string",
          "name": "_slug",
          "type": "string"
        }
      ],
      "name": "getMatchAmountTotalBySlug",
      "outputs": [
        {
          "internalType": "uint256",
          "name": "",
          "type": "uint256"
        }
      ],
      "stateMutability": "view",
      "type": "function"
    },
    {
      "inputs": [
        {
          "internalType": "uint64",
          "name": "",
          "type": "uint64"
        },
        {
          "internalType": "string",
          "name": "",
          "type": "string"
        }
      ],
      "name": "matchSlugsAmountTotal",
      "outputs": [
        {
          "internalType": "uint256",
          "name": "",
          "type": "uint256"
        }
      ],
      "stateMutability": "view",
      "type": "function"
    },
    {
      "inputs": [
        {
          "internalType": "uint64",
          "name": "",
          "type": "uint64"
        }
      ],
      "name": "matches",
      "outputs": [
        {
          "internalType": "uint64",
          "name": "id",
          "type": "uint64"
        },
        {
          "internalType": "enum Match.Status",
          "name": "status",
          "type": "uint8"
        },
        {
          "internalType": "uint256",
          "name": "totalAmount",
          "type": "uint256"
        },
        {
          "internalType": "bool",
          "name": "isExist",
          "type": "bool"
        }
      ],
      "stateMutability": "view",
      "type": "function"
    },
    {
      "inputs": [],
      "name": "owner",
      "outputs": [
        {
          "internalType": "address",
          "name": "",
          "type": "address"
        }
      ],
      "stateMutability": "view",
      "type": "function"
    },
    {
      "inputs": [
        {
          "internalType": "uint64",
          "name": "_matchId",
          "type": "uint64"
        },
        {
          "internalType": "string",
          "name": "_slugBet",
          "type": "string"
        }
      ],
      "name": "placeBid",
      "outputs": [],
      "stateMutability": "payable",
      "type": "function"
    },
    {
      "inputs": [],
      "name": "renounceOwnership",
      "outputs": [],
      "stateMutability": "nonpayable",
      "type": "function"
    },
    {
      "inputs": [
        {
          "internalType": "address",
          "name": "newOwner",
          "type": "address"
        }
      ],
      "name": "transferOwnership",
      "outputs": [],
      "stateMutability": "nonpayable",
      "type": "function"
    },
    {
      "inputs": [
        {
          "internalType": "uint64",
          "name": "_matchId",
          "type": "uint64"
        },
        {
          "internalType": "enum Match.Status",
          "name": "_status",
          "type": "uint8"
        },
        {
          "internalType": "string[]",
          "name": "_winningBetSlugs",
          "type": "string[]"
        }
      ],
      "name": "updateMatch",
      "outputs": [],
      "stateMutability": "nonpayable",
      "type": "function"
    },
    {
      "inputs": [
        {
          "internalType": "uint64",
          "name": "",
          "type": "uint64"
        },
        {
          "internalType": "string",
          "name": "",
          "type": "string"
        }
      ],
      "name": "winningBetSlugsExist",
      "outputs": [
        {
          "internalType": "bool",
          "name": "",
          "type": "bool"
        }
      ],
      "stateMutability": "view",
      "type": "function"
    },
    {
      "inputs": [
        {
          "internalType": "uint64",
          "name": "_matchId",
          "type": "uint64"
        }
      ],
      "name": "withdraw",
      "outputs": [],
      "stateMutability": "nonpayable",
      "type": "function"
    },
    {
      "stateMutability": "payable",
      "type": "receive"
    }
  ],
  "bytecode": "0x6080604052600180546001600160a81b031916740190f79bf6eb2c4f870365e785982e1f101e93b90617905534801561003757600080fd5b5061004133610046565b610096565b600080546001600160a01b038381166001600160a01b0319831681178455604051919092169283917f8be0079c531659141344cd1fd0a4f28419497f9722a3daafe3b4186f6b6457e09190a35050565b6128a8806100a56000396000f3fe6080604052600436106101235760003560e01c8063750f0acc116100a0578063966bc0d111610064578063966bc0d114610438578063bc0e628b1461048f578063d8e7ce06146104af578063e5fc5642146104cf578063f2fde38b146104ef57600080fd5b8063750f0acc146103875780637fd6f15c146103a75780638bc1e019146103da5780638da5cb5b146103fa5780638e8817c91461041857600080fd5b8063486ec258116100e7578063486ec2581461027d5780635e02fa6c146102d95780635e8d4ea114610306578063601629f814610326578063715018a61461037257600080fd5b806301338883146101675780632c011cc91461017c5780633b92c4d3146101e95780634127535814610216578063417999971461024e57600080fd5b3661016257604080513381523460208201527f88a5966d370b9919b20f3e2c13ff65706f196a4e32cc2c12bf57088f88525874910160405180910390a1005b600080fd5b61017a610175366004612149565b61050f565b005b34801561018857600080fd5b506101d0610197366004612196565b6002602052600090815260409020805460018201546004909201546001600160401b0382169260ff600160401b90930483169290911684565b6040516101e094939291906121f0565b60405180910390f35b3480156101f557600080fd5b50610209610204366004612196565b610b46565b6040516101e091906122d8565b34801561022257600080fd5b50600154610236906001600160a01b031681565b6040516001600160a01b0390911681526020016101e0565b34801561025a57600080fd5b5061026e61026936600461235a565b610da6565b6040516101e0939291906123b0565b34801561028957600080fd5b506102c9610298366004612149565b6005602090815260009283526040909220815180830184018051928152908401929093019190912091525460ff1681565b60405190151581526020016101e0565b3480156102e557600080fd5b506102f96102f4366004612196565b610e9a565b6040516101e0919061241f565b34801561031257600080fd5b5061026e610321366004612498565b610fc9565b34801561033257600080fd5b506102c9610341366004612149565b6004602090815260009283526040909220815180830184018051928152908401929093019190912091525460ff1681565b34801561037e57600080fd5b5061017a610ff1565b34801561039357600080fd5b5061017a6103a2366004612196565b611027565b3480156103b357600080fd5b506001546103c890600160a01b900460ff1681565b60405160ff90911681526020016101e0565b3480156103e657600080fd5b5061017a6103f5366004612581565b61164a565b34801561040657600080fd5b506000546001600160a01b0316610236565b34801561042457600080fd5b5061026e6104333660046125de565b6119ea565b34801561044457600080fd5b50610481610453366004612149565b6008602090815260009283526040909220815180830184018051928152908401929093019190912091525481565b6040519081526020016101e0565b34801561049b57600080fd5b5061017a6104aa366004612618565b611a37565b3480156104bb57600080fd5b506102f96104ca366004612196565b611cc3565b3480156104db57600080fd5b506104816104ea366004612149565b611ddf565b3480156104fb57600080fd5b5061017a61050a3660046126e5565b611e1c565b6000341161055a5760405162461bcd60e51b81526020600482015260136024820152722737ba103632b9b9903a3430b7103d32b9379760691b60448201526064015b60405180910390fd5b6001600160401b038281166000908152600260209081526040808320815160c08101909252805494851682529293909291830190600160401b900460ff1660038111156105a9576105a96121b8565b60038111156105ba576105ba6121b8565b81526020016001820154815260200160028201805480602002602001604051908101604052809291908181526020016000905b8282101561069957838290600052602060002001805461060c90612700565b80601f016020809104026020016040519081016040528092919081815260200182805461063890612700565b80156106855780601f1061065a57610100808354040283529160200191610685565b820191906000526020600020905b81548152906001019060200180831161066857829003601f168201915b5050505050815260200190600101906105ed565b50505050815260200160038201805480602002602001604051908101604052809291908181526020016000905b828210156107725783829060005260206000200180546106e590612700565b80601f016020809104026020016040519081016040528092919081815260200182805461071190612700565b801561075e5780601f106107335761010080835404028352916020019161075e565b820191906000526020600020905b81548152906001019060200180831161074157829003601f168201915b5050505050815260200190600101906106c6565b505050908252506004919091015460ff16151560209091015290506000816020015160038111156107a5576107a56121b8565b146108055760405162461bcd60e51b815260206004820152602a60248201527f4d6174636820697320616c726561647920696e2070726f6772657373206f72206044820152693430b99032b73232b21760b11b6064820152608401610551565b6001600160401b03831660009081526004602052604090819020905161082c90849061273b565b9081526040519081900360200190205460ff166108835760405162461bcd60e51b815260206004820152601560248201527429b63ab39034b9b713ba1030bb30b4b630b136329760591b6044820152606401610551565b600154600090600160a01b900460ff1661089e60643461276d565b6108a8919061278f565b905060006108b682346127ae565b6001546040519192506001600160a01b03169083156108fc029084906000818181858888f193505050501580156108f1573d6000803e3d6000fd5b506040805160608101825233815260208082018781528284018590526001600160401b038916600090815260038084529481208054600180820183559183529184902085519290960290950180546001600160a01b0319166001600160a01b039092169190911781559051805193948594929361097393918501920190611f07565b50604091820151600291909101556001600160401b038716600090815260066020908152828220338352815291812080546001808201835591835291839020845160039093020180546001600160a01b0319166001600160a01b0390931692909217825583830151805185946109ed938501920190611f07565b506040918201516002909101556001600160401b038716600090815260076020528190209051610a1e90879061273b565b90815260405160209181900382019020805460018082018355600092835291839020845160039092020180546001600160a01b0319166001600160a01b0390921691909117815583830151805185949293610a7e93908501920190611f07565b506040918201516002909101556001600160401b038716600090815260086020528190209051839190610ab290889061273b565b90815260200160405180910390206000828254610acf91906127c5565b90915550506001600160401b03861660009081526002602052604081206001018054849290610aff9084906127c5565b90915550506040517ffd92aea00ae5fa3b645ca0babd0fe840a6a20cabe5c828834addec9d9784b36690610b3690889084906127dd565b60405180910390a1505050505050565b6040805160c08082018352600080835260208084018290528385018290526060808501819052608085015260a084018290526001600160401b038681168352600282529185902085519384019095528454918216835292939192830190600160401b900460ff166003811115610bbe57610bbe6121b8565b6003811115610bcf57610bcf6121b8565b81526020016001820154815260200160028201805480602002602001604051908101604052809291908181526020016000905b82821015610cae578382906000526020600020018054610c2190612700565b80601f0160208091040260200160405190810160405280929190818152602001828054610c4d90612700565b8015610c9a5780601f10610c6f57610100808354040283529160200191610c9a565b820191906000526020600020905b815481529060010190602001808311610c7d57829003601f168201915b505050505081526020019060010190610c02565b50505050815260200160038201805480602002602001604051908101604052809291908181526020016000905b82821015610d87578382906000526020600020018054610cfa90612700565b80601f0160208091040260200160405190810160405280929190818152602001828054610d2690612700565b8015610d735780601f10610d4857610100808354040283529160200191610d73565b820191906000526020600020905b815481529060010190602001808311610d5657829003601f168201915b505050505081526020019060010190610cdb565b505050908252506004919091015460ff16151560209091015292915050565b60076020908152600084815260409020835180850183018051928152908301928501929092209152805482908110610ddd57600080fd5b6000918252602090912060039091020180546001820180546001600160a01b039092169550919350909150610e1190612700565b80601f0160208091040260200160405190810160405280929190818152602001828054610e3d90612700565b8015610e8a5780601f10610e5f57610100808354040283529160200191610e8a565b820191906000526020600020905b815481529060010190602001808311610e6d57829003601f168201915b5050505050908060020154905083565b6001600160401b03811660009081526006602090815260408083203384528252808320805482518185028101850190935280835260609492939192909184015b82821015610fbe57600084815260209081902060408051606081019091526003850290910180546001600160a01b031682526001810180549293919291840191610f2390612700565b80601f0160208091040260200160405190810160405280929190818152602001828054610f4f90612700565b8015610f9c5780601f10610f7157610100808354040283529160200191610f9c565b820191906000526020600020905b815481529060010190602001808311610f7f57829003601f168201915b5050505050815260200160028201548152505081526020019060010190610eda565b505050509050919050565b60066020528260005260406000206020528160005260406000208181548110610ddd57600080fd5b6000546001600160a01b0316331461101b5760405162461bcd60e51b815260040161055190612807565b6110256000611eb7565b565b6001600160401b038181166000908152600260209081526040808320815160c08101909252805494851682529293909291830190600160401b900460ff166003811115611076576110766121b8565b6003811115611087576110876121b8565b81526020016001820154815260200160028201805480602002602001604051908101604052809291908181526020016000905b828210156111665783829060005260206000200180546110d990612700565b80601f016020809104026020016040519081016040528092919081815260200182805461110590612700565b80156111525780601f1061112757610100808354040283529160200191611152565b820191906000526020600020905b81548152906001019060200180831161113557829003601f168201915b5050505050815260200190600101906110ba565b50505050815260200160038201805480602002602001604051908101604052809291908181526020016000905b8282101561123f5783829060005260206000200180546111b290612700565b80601f01602080910402602001604051908101604052809291908181526020018280546111de90612700565b801561122b5780601f106112005761010080835404028352916020019161122b565b820191906000526020600020905b81548152906001019060200180831161120e57829003601f168201915b505050505081526020019060010190611193565b505050908252506004919091015460ff1615156020909101529050600281602001516003811115611272576112726121b8565b14806112935750600381602001516003811115611291576112916121b8565b145b6112d55760405162461bcd60e51b815260206004820152601360248201527226b0ba31b41034b9903737ba1032b73232b21760691b6044820152606401610551565b6001600160401b0382166000908152600660209081526040808320338452825280832080548251818502810185019093528083529192909190849084015b828210156113f757600084815260209081902060408051606081019091526003850290910180546001600160a01b03168252600181018054929391929184019161135c90612700565b80601f016020809104026020016040519081016040528092919081815260200182805461138890612700565b80156113d55780601f106113aa576101008083540402835291602001916113d5565b820191906000526020600020905b8154815290600101906020018083116113b857829003601f168201915b5050505050815260200160028201548152505081526020019060010190611313565b50505050905060008060005b83518160ff16101561157757838160ff16815181106114245761142461283c565b6020026020010151604001518361143b91906127c5565b6001600160401b0387166000908152600560205260409020855191945090859060ff841690811061146e5761146e61283c565b602002602001015160200151604051611487919061273b565b9081526040519081900360200190205460ff16156114ce57838160ff16815181106114b4576114b461283c565b602002602001015160400151826114cb91906127c5565b91505b838160ff16815181106114e3576114e361283c565b60200260200101516040015160086000886001600160401b03166001600160401b03168152602001908152602001600020858360ff16815181106115295761152961283c565b602002602001015160200151604051611542919061273b565b9081526020016040518091039020600082825461155f91906127ae565b9091555081905061156f81612852565b915050611403565b506001600160401b038516600090815260026020526040812060010180548492906115a39084906127ae565b9091555060029050846020015160038111156115c1576115c16121b8565b14156115f657604051339082156108fc029083906000818181858888f193505050501580156115f4573d6000803e3d6000fd5b505b60038460200151600381111561160e5761160e6121b8565b141561164357604051339083156108fc029084906000818181858888f19350505050158015611641573d6000803e3d6000fd5b505b5050505050565b6000546001600160a01b031633146116745760405162461bcd60e51b815260040161055190612807565b6001600160401b038381166000908152600260209081526040808320815160c08101909252805494851682529293909291830190600160401b900460ff1660038111156116c3576116c36121b8565b60038111156116d4576116d46121b8565b81526020016001820154815260200160028201805480602002602001604051908101604052809291908181526020016000905b828210156117b357838290600052602060002001805461172690612700565b80601f016020809104026020016040519081016040528092919081815260200182805461175290612700565b801561179f5780601f106117745761010080835404028352916020019161179f565b820191906000526020600020905b81548152906001019060200180831161178257829003601f168201915b505050505081526020019060010190611707565b50505050815260200160038201805480602002602001604051908101604052809291908181526020016000905b8282101561188c5783829060005260206000200180546117ff90612700565b80601f016020809104026020016040519081016040528092919081815260200182805461182b90612700565b80156118785780601f1061184d57610100808354040283529160200191611878565b820191906000526020600020905b81548152906001019060200180831161185b57829003601f168201915b5050505050815260200190600101906117e0565b505050908252506004919091015460ff16151560209091015260a08101519091506118ec5760405162461bcd60e51b815260206004820152601060248201526f26b0ba31b4103737ba103337bab7321760811b6044820152606401610551565b6001600160401b0384166000908152600260205260409020805484919068ff00000000000000001916600160401b83600381111561192c5761192c6121b8565b02179055506001600160401b0384166000908152600260209081526040909120835161196092600390920191850190611f8b565b5060005b82518160ff161015611643576001600160401b0385166000908152600560205260409020835160019190859060ff85169081106119a3576119a361283c565b60200260200101516040516119b8919061273b565b908152604051908190036020019020805491151560ff19909216919091179055806119e281612852565b915050611964565b60036020528160005260406000208181548110611a0657600080fd5b6000918252602090912060039091020180546001820180546001600160a01b039092169450919250610e1190612700565b6000546001600160a01b03163314611a615760405162461bcd60e51b815260040161055190612807565b80516001600160401b031660009081526002602052604090206004015460ff1615611ace5760405162461bcd60e51b815260206004820152601f60248201527f4d61746368206279207468697320696420616c726561647920657869737473006044820152606401610551565b606060006040518060c0016040528084600001516001600160401b0316815260200184602001516003811115611b0657611b066121b8565b815260006020808301829052606080880151604080860191909152908401879052600160809094019390935286516001600160401b039081168352600282529290912083518154931667ffffffffffffffff1984168117825591840151939450849390929091839168ffffffffffffffffff191617600160401b836003811115611b9257611b926121b8565b02179055506040820151600182015560608201518051611bbc916002840191602090910190611f8b565b5060808201518051611bd8916003840191602090910190611f8b565b5060a091909101516004909101805460ff191691151591909117905560005b8360600151518160ff161015611c865783516001600160401b0316600090815260046020526040902060608501518051600192919060ff8516908110611c3f57611c3f61283c565b6020026020010151604051611c54919061273b565b908152604051908190036020019020805491151560ff1990921691909117905580611c7e81612852565b915050611bf7565b507f250efa87a8ff224c6a204bda5bc2888e91966c3177627e0f2c1f61606d8df3a181604051611cb691906122d8565b60405180910390a1505050565b6001600160401b0381166000908152600360209081526040808320805482518185028101850190935280835260609492939192909184015b82821015610fbe57600084815260209081902060408051606081019091526003850290910180546001600160a01b031682526001810180549293919291840191611d4490612700565b80601f0160208091040260200160405190810160405280929190818152602001828054611d7090612700565b8015611dbd5780601f10611d9257610100808354040283529160200191611dbd565b820191906000526020600020905b815481529060010190602001808311611da057829003601f168201915b5050505050815260200160028201548152505081526020019060010190611cfb565b6001600160401b0382166000908152600860205260408082209051611e0590849061273b565b908152602001604051809103902054905092915050565b6000546001600160a01b03163314611e465760405162461bcd60e51b815260040161055190612807565b6001600160a01b038116611eab5760405162461bcd60e51b815260206004820152602660248201527f4f776e61626c653a206e6577206f776e657220697320746865207a65726f206160448201526564647265737360d01b6064820152608401610551565b611eb481611eb7565b50565b600080546001600160a01b038381166001600160a01b0319831681178455604051919092169283917f8be0079c531659141344cd1fd0a4f28419497f9722a3daafe3b4186f6b6457e09190a35050565b828054611f1390612700565b90600052602060002090601f016020900481019282611f355760008555611f7b565b82601f10611f4e57805160ff1916838001178555611f7b565b82800160010185558215611f7b579182015b82811115611f7b578251825591602001919060010190611f60565b50611f87929150611fe4565b5090565b828054828255906000526020600020908101928215611fd8579160200282015b82811115611fd85782518051611fc8918491602090910190611f07565b5091602001919060010190611fab565b50611f87929150611ff9565b5b80821115611f875760008155600101611fe5565b80821115611f8757600061200d8282612016565b50600101611ff9565b50805461202290612700565b6000825580601f10612032575050565b601f016020900490600052602060002090810190611eb49190611fe4565b80356001600160401b038116811461206757600080fd5b919050565b634e487b7160e01b600052604160045260246000fd5b60405160c081016001600160401b03811182821017156120a4576120a461206c565b60405290565b604051601f8201601f191681016001600160401b03811182821017156120d2576120d261206c565b604052919050565b600082601f8301126120eb57600080fd5b81356001600160401b038111156121045761210461206c565b612117601f8201601f19166020016120aa565b81815284602083860101111561212c57600080fd5b816020850160208301376000918101602001919091529392505050565b6000806040838503121561215c57600080fd5b61216583612050565b915060208301356001600160401b0381111561218057600080fd5b61218c858286016120da565b9150509250929050565b6000602082840312156121a857600080fd5b6121b182612050565b9392505050565b634e487b7160e01b600052602160045260246000fd5b600481106121ec57634e487b7160e01b600052602160045260246000fd5b9052565b6001600160401b03851681526080810161220d60208301866121ce565b836040830152821515606083015295945050505050565b60005b8381101561223f578181015183820152602001612227565b8381111561224e576000848401525b50505050565b6000815180845261226c816020860160208601612224565b601f01601f19169290920160200192915050565b600082825180855260208086019550808260051b84010181860160005b848110156122cb57601f198684030189526122b9838351612254565b9884019892509083019060010161229d565b5090979650505050505050565b602081526001600160401b0382511660208201526000602083015161230060408401826121ce565b5060408301516060830152606083015160c0608084015261232460e0840182612280565b90506080840151601f198483030160a08501526123418282612280565b91505060a0840151151560c08401528091505092915050565b60008060006060848603121561236f57600080fd5b61237884612050565b925060208401356001600160401b0381111561239357600080fd5b61239f868287016120da565b925050604084013590509250925092565b6001600160a01b03841681526060602082018190526000906123d490830185612254565b9050826040830152949350505050565b60018060a01b038151168252600060208201516060602085015261240b6060850182612254565b604093840151949093019390935250919050565b6000602080830181845280855180835260408601915060408160051b870101925083870160005b8281101561247457603f198886030184526124628583516123e4565b94509285019290850190600101612446565b5092979650505050505050565b80356001600160a01b038116811461206757600080fd5b6000806000606084860312156124ad57600080fd5b6124b684612050565b92506124c460208501612481565b9150604084013590509250925092565b80356004811061206757600080fd5b600082601f8301126124f457600080fd5b813560206001600160401b03808311156125105761251061206c565b8260051b61251f8382016120aa565b938452858101830193838101908886111561253957600080fd5b84880192505b85831015612575578235848111156125575760008081fd5b6125658a87838c01016120da565b835250918401919084019061253f565b98975050505050505050565b60008060006060848603121561259657600080fd5b61259f84612050565b92506125ad602085016124d4565b915060408401356001600160401b038111156125c857600080fd5b6125d4868287016124e3565b9150509250925092565b600080604083850312156125f157600080fd5b6125fa83612050565b946020939093013593505050565b8035801515811461206757600080fd5b60006020828403121561262a57600080fd5b81356001600160401b038082111561264157600080fd5b9083019060c0828603121561265557600080fd5b61265d612082565b61266683612050565b8152612674602084016124d4565b60208201526040830135604082015260608301358281111561269557600080fd5b6126a1878286016124e3565b6060830152506080830135828111156126b957600080fd5b6126c5878286016124e3565b6080830152506126d760a08401612608565b60a082015295945050505050565b6000602082840312156126f757600080fd5b6121b182612481565b600181811c9082168061271457607f821691505b6020821081141561273557634e487b7160e01b600052602260045260246000fd5b50919050565b6000825161274d818460208701612224565b9190910192915050565b634e487b7160e01b600052601160045260246000fd5b60008261278a57634e487b7160e01b600052601260045260246000fd5b500490565b60008160001904831182151516156127a9576127a9612757565b500290565b6000828210156127c0576127c0612757565b500390565b600082198211156127d8576127d8612757565b500190565b6001600160401b03831681526040602082015260006127ff60408301846123e4565b949350505050565b6020808252818101527f4f776e61626c653a2063616c6c6572206973206e6f7420746865206f776e6572604082015260600190565b634e487b7160e01b600052603260045260246000fd5b600060ff821660ff81141561286957612869612757565b6001019291505056fea26469706673582212206311a55f68a371ab008609946d69ce469ca7b081fee5031cb940b3aa89c9664464736f6c634300080b0033",
  "linkReferences": {},
  "deployedLinkReferences": {}
}